{
  "_format": "hh-sol-artifact-1",
  "contractName": "EncryptedDiceGame",
  "sourceName": "contracts/EncryptedDiceGame.sol",
  "abi": [
    {
      "inputs": [],
      "stateMutability": "nonpayable",
      "type": "constructor"
    },
    {
      "inputs": [],
      "name": "GameAlreadyResolved",
      "type": "error"
    },
    {
      "inputs": [],
      "name": "InvalidDiceCount",
      "type": "error"
    },
    {
      "inputs": [],
      "name": "MaxMintExceeded",
      "type": "error"
    },
    {
      "inputs": [],
      "name": "NoETHSent",
      "type": "error"
    },
    {
      "inputs": [],
      "name": "OnlyGamePlayer",
      "type": "error"
    },
    {
      "inputs": [],
      "name": "OnlyOwner",
      "type": "error"
    },
    {
      "inputs": [],
      "name": "ZamaProtocolUnsupported",
      "type": "error"
    },
    {
      "anonymous": false,
      "inputs": [
        {
          "indexed": true,
          "internalType": "uint256",
          "name": "gameId",
          "type": "uint256"
        },
        {
          "indexed": true,
          "internalType": "address",
          "name": "player",
          "type": "address"
        },
        {
          "indexed": false,
          "internalType": "uint256",
          "name": "timestamp",
          "type": "uint256"
        }
      ],
      "name": "GameResolved",
      "type": "event"
    },
    {
      "anonymous": false,
      "inputs": [
        {
          "indexed": true,
          "internalType": "uint256",
          "name": "gameId",
          "type": "uint256"
        },
        {
          "indexed": true,
          "internalType": "address",
          "name": "player",
          "type": "address"
        },
        {
          "indexed": false,
          "internalType": "uint8",
          "name": "diceCount",
          "type": "uint8"
        },
        {
          "indexed": false,
          "internalType": "uint256",
          "name": "timestamp",
          "type": "uint256"
        }
      ],
      "name": "GameStarted",
      "type": "event"
    },
    {
      "anonymous": false,
      "inputs": [
        {
          "indexed": true,
          "internalType": "address",
          "name": "user",
          "type": "address"
        },
        {
          "indexed": false,
          "internalType": "uint256",
          "name": "amount",
          "type": "uint256"
        }
      ],
      "name": "TokensMinted",
      "type": "event"
    },
    {
      "anonymous": false,
      "inputs": [
        {
          "indexed": true,
          "internalType": "address",
          "name": "user",
          "type": "address"
        },
        {
          "indexed": false,
          "internalType": "uint256",
          "name": "ethAmount",
          "type": "uint256"
        },
        {
          "indexed": false,
          "internalType": "uint256",
          "name": "rollAmount",
          "type": "uint256"
        },
        {
          "indexed": false,
          "internalType": "bool",
          "name": "ethToRoll",
          "type": "bool"
        }
      ],
      "name": "TokensSwapped",
      "type": "event"
    },
    {
      "stateMutability": "payable",
      "type": "fallback"
    },
    {
      "inputs": [],
      "name": "BASIS_POINTS",
      "outputs": [
        {
          "internalType": "uint256",
          "name": "",
          "type": "uint256"
        }
      ],
      "stateMutability": "view",
      "type": "function"
    },
    {
      "inputs": [],
      "name": "MAX_MINT",
      "outputs": [
        {
          "internalType": "uint256",
          "name": "",
          "type": "uint256"
        }
      ],
      "stateMutability": "view",
      "type": "function"
    },
    {
      "inputs": [],
      "name": "MAX_STAKE",
      "outputs": [
        {
          "internalType": "uint256",
          "name": "",
          "type": "uint256"
        }
      ],
      "stateMutability": "view",
      "type": "function"
    },
    {
      "inputs": [],
      "name": "MIN_STAKE",
      "outputs": [
        {
          "internalType": "uint256",
          "name": "",
          "type": "uint256"
        }
      ],
      "stateMutability": "view",
      "type": "function"
    },
    {
      "inputs": [],
      "name": "PAYOUT_MULTIPLIER",
      "outputs": [
        {
          "internalType": "uint256",
          "name": "",
          "type": "uint256"
        }
      ],
      "stateMutability": "view",
      "type": "function"
    },
    {
      "inputs": [],
      "name": "ROLL_TOKEN_RATE",
      "outputs": [
        {
          "internalType": "uint256",
          "name": "",
          "type": "uint256"
        }
      ],
      "stateMutability": "view",
      "type": "function"
    },
    {
      "inputs": [],
      "name": "confidentialProtocolId",
      "outputs": [
        {
          "internalType": "uint256",
          "name": "",
          "type": "uint256"
        }
      ],
      "stateMutability": "view",
      "type": "function"
    },
    {
      "inputs": [],
      "name": "gameCounter",
      "outputs": [
        {
          "internalType": "uint256",
          "name": "",
          "type": "uint256"
        }
      ],
      "stateMutability": "view",
      "type": "function"
    },
    {
      "inputs": [
        {
          "internalType": "uint256",
          "name": "",
          "type": "uint256"
        }
      ],
      "name": "games",
      "outputs": [
        {
          "internalType": "address",
          "name": "player",
          "type": "address"
        },
        {
          "internalType": "uint8",
          "name": "diceCount",
          "type": "uint8"
        },
        {
          "internalType": "euint8",
          "name": "prediction",
          "type": "bytes32"
        },
        {
          "internalType": "euint32",
          "name": "stakeAmount",
          "type": "bytes32"
        },
        {
          "internalType": "uint256",
          "name": "timestamp",
          "type": "uint256"
        },
        {
          "internalType": "bool",
          "name": "isResolved",
          "type": "bool"
        }
      ],
      "stateMutability": "view",
      "type": "function"
    },
    {
      "inputs": [
        {
          "internalType": "address",
          "name": "player",
          "type": "address"
        }
      ],
      "name": "getBalance",
      "outputs": [
        {
          "internalType": "euint32",
          "name": "",
          "type": "bytes32"
        }
      ],
      "stateMutability": "view",
      "type": "function"
    },
    {
      "inputs": [
        {
          "internalType": "uint256",
          "name": "gameId",
          "type": "uint256"
        }
      ],
      "name": "getGame",
      "outputs": [
        {
          "internalType": "address",
          "name": "player",
          "type": "address"
        },
        {
          "internalType": "uint256",
          "name": "timestamp",
          "type": "uint256"
        },
        {
          "internalType": "bool",
          "name": "isResolved",
          "type": "bool"
        }
      ],
      "stateMutability": "view",
      "type": "function"
    },
    {
      "inputs": [
        {
          "internalType": "address",
          "name": "player",
          "type": "address"
        }
      ],
      "name": "getPlayerBalance",
      "outputs": [
        {
          "internalType": "euint32",
          "name": "",
          "type": "bytes32"
        }
      ],
      "stateMutability": "view",
      "type": "function"
    },
    {
      "inputs": [
        {
          "internalType": "address",
          "name": "player",
          "type": "address"
        }
      ],
      "name": "makeBalancePubliclyDecryptable",
      "outputs": [],
      "stateMutability": "nonpayable",
      "type": "function"
    },
    {
      "inputs": [
        {
          "internalType": "uint256",
          "name": "amount",
          "type": "uint256"
        }
      ],
      "name": "mintTokens",
      "outputs": [],
      "stateMutability": "nonpayable",
      "type": "function"
    },
    {
      "inputs": [],
      "name": "owner",
      "outputs": [
        {
          "internalType": "address",
          "name": "",
          "type": "address"
        }
      ],
      "stateMutability": "view",
      "type": "function"
    },
    {
      "inputs": [
        {
          "internalType": "address",
          "name": "",
          "type": "address"
        }
      ],
      "name": "playerBalance",
      "outputs": [
        {
          "internalType": "euint32",
          "name": "",
          "type": "bytes32"
        }
      ],
      "stateMutability": "view",
      "type": "function"
    },
    {
      "inputs": [
        {
          "internalType": "address",
          "name": "",
          "type": "address"
        },
        {
          "internalType": "uint256",
          "name": "",
          "type": "uint256"
        }
      ],
      "name": "playerGames",
      "outputs": [
        {
          "internalType": "uint256",
          "name": "",
          "type": "uint256"
        }
      ],
      "stateMutability": "view",
      "type": "function"
    },
    {
      "inputs": [
        {
          "internalType": "uint256",
          "name": "gameId",
          "type": "uint256"
        }
      ],
      "name": "resolveGame",
      "outputs": [],
      "stateMutability": "nonpayable",
      "type": "function"
    },
    {
      "inputs": [
        {
          "internalType": "externalEuint8",
          "name": "encryptedPrediction",
          "type": "bytes32"
        },
        {
          "internalType": "bytes",
          "name": "predictionProof",
          "type": "bytes"
        },
        {
          "internalType": "uint32",
          "name": "stakeAmount",
          "type": "uint32"
        }
      ],
      "name": "startGame",
      "outputs": [],
      "stateMutability": "nonpayable",
      "type": "function"
    },
    {
      "inputs": [
        {
          "internalType": "externalEuint8",
          "name": "encryptedPrediction",
          "type": "bytes32"
        },
        {
          "internalType": "bytes",
          "name": "predictionProof",
          "type": "bytes"
        },
        {
          "internalType": "externalEuint8",
          "name": "encryptedDiceValue",
          "type": "bytes32"
        },
        {
          "internalType": "bytes",
          "name": "diceValueProof",
          "type": "bytes"
        },
        {
          "internalType": "externalEuint8",
          "name": "encryptedDiceParity",
          "type": "bytes32"
        },
        {
          "internalType": "bytes",
          "name": "diceParityProof",
          "type": "bytes"
        },
        {
          "internalType": "uint32",
          "name": "stakeAmount",
          "type": "uint32"
        }
      ],
      "name": "rollDice",
      "outputs": [],
      "stateMutability": "nonpayable",
      "type": "function"
    },
    {
      "inputs": [],
      "name": "swapETHForROLL",
      "outputs": [],
      "stateMutability": "payable",
      "type": "function"
    },
    {
      "inputs": [
        {
          "internalType": "externalEuint32",
          "name": "encryptedAmount",
          "type": "bytes32"
        },
        {
          "internalType": "bytes",
          "name": "amountProof",
          "type": "bytes"
        }
      ],
      "name": "swapROLLForETH",
      "outputs": [],
      "stateMutability": "nonpayable",
      "type": "function"
    },
    {
      "inputs": [],
      "name": "withdrawETH",
      "outputs": [],
      "stateMutability": "nonpayable",
      "type": "function"
    },
    {
      "stateMutability": "payable",
      "type": "receive"
    }
  ],
  "bytecode": "0x608060405234801561000f575f5ffd5b506100c461001b6100dd565b80517f9e7b61f58c47dc699ac88507c4f5bb9f121c03808c5676a8078fe583e464970080546001600160a01b03199081166001600160a01b039384161790915560208301517f9e7b61f58c47dc699ac88507c4f5bb9f121c03808c5676a8078fe583e46497018054831691841691909117905560408301517f9e7b61f58c47dc699ac88507c4f5bb9f121c03808c5676a8078fe583e46497028054909216921691909117905550565b5f80546001600160a01b0319163317815560015561024c565b604080516060810182525f808252602082018190529181019190915246600103610136575060408051606080820183525f8083526020808401829052928401819052835191820184528082529181018290529182015290565b4662aa36a7036101b5575060408051606080820183525f8083526020808401829052928401528251908101835273f0ffdc93b7e186bc2f8cb3daa75d86d1930a433d81527392c920834ec8941d2c77d188936e1f7a6f49c1279181019190915273be0e383937d564d7ff0bc3b46c51f0bf8d5c311a9181019190915290565b46617a6903610233575060408051606080820183525f8083526020808401829052928401528251908101835273f0ffdc93b7e186bc2f8cb3daa75d86d1930a433d81527392c920834ec8941d2c77d188936e1f7a6f49c1279181019190915273be0e383937d564d7ff0bc3b46c51f0bf8d5c311a9181019190915290565b6040516373cac13b60e01b815260040160405180910390fd5b611bad806102595f395ff3fe608060405260043610610196575f3560e01c806397304ced116100df578063e086e5ec11610083578063e6852e3911610060578063e6852e3914610535578063f0292a0314610554578063f25764b514610571578063f8b2cb4f1461050157005b8063e086e5ec146104d9578063e1f1c4a7146104ed578063e2734c931461050157005b8063a2f77bcc116100bc578063a2f77bcc14610402578063b7a5a5b614610483578063c98517c5146104a2578063cb1c2b5c146104be57005b806397304ced146103a5578063a11bc21a146103c4578063a1ff1c05146103e357005b80634e33f83b11610146578063802bbf4811610123578063802bbf481461033e5780638927b030146103535780638da5cb5b146103675780638e2178341461039d57005b80634e33f83b146102e057806350aa7ac51461030b5780637ab223601461032a57005b8063117a5b9011610174578063117a5b9014610215578063129daf84146102ac5780632e0be39a146102cb57005b80630a5694c2146101985780630b2c8d25146101ca5780630c628f4e146101f6575b005b3480156101a3575f5ffd5b506101b76101b236600461187e565b6105a5565b6040519081526020015b60405180910390f35b3480156101d5575f5ffd5b506101e96101e43660046118a6565b6105d0565b6040516101c191906118bd565b348015610201575f5ffd5b506101b76102103660046118a6565b610669565b348015610220575f5ffd5b5061027161022f3660046118a6565b60036020525f9081526040902080546001820154600283015460048401546005909401546001600160a01b0384169460ff600160a01b90950485169490911686565b604080516001600160a01b03909716875260ff90951660208701529385019290925260608401526080830152151560a082015260c0016101c1565b3480156102b7575f5ffd5b506101e96102c63660046118ff565b6106b4565b3480156102d6575f5ffd5b506101b760015481565b3480156102eb575f5ffd5b506101b76102fa3660046118ff565b60026020525f908152604090205481565b348015610316575f5ffd5b506101b76103253660046118a6565b61071b565b348015610335575f5ffd5b506101b760c381565b348015610349575f5ffd5b506101b76103e881565b34801561035e575f5ffd5b506101b7610766565b348015610372575f5ffd5b505f54610385906001600160a01b031681565b6040516001600160a01b0390911681526020016101c1565b610196610774565b3480156103b0575f5ffd5b506101966103bf3660046118a6565b610848565b3480156103cf575f5ffd5b506101966103de36600461195d565b6108ff565b3480156103ee575f5ffd5b506101966103fd3660046118ff565b610ba7565b34801561040d575f5ffd5b5061045561041c3660046118a6565b5f908152600360205260409020805460048201546005909201546001600160a01b03821693600160a01b90920460ff9081169392911690565b604080516001600160a01b03909516855260ff909316602085015291830152151560608201526080016101c1565b34801561048e575f5ffd5b5061019661049d3660046118a6565b610c3c565b3480156104ad575f5ffd5b506101b7683635c9adc5dea0000081565b3480156104c9575f5ffd5b506101b7670de0b6b3a764000081565b3480156104e4575f5ffd5b50610196610ef4565b3480156104f8575f5ffd5b506101b7606481565b34801561050c575f5ffd5b506101b761051b3660046118ff565b6001600160a01b03165f9081526002602052604090205490565b348015610540575f5ffd5b5061019661054f3660046119f6565b610f58565b34801561055f575f5ffd5b506101b769021e19e0c9bab240000081565b34801561057c575f5ffd5b506101b761058b3660046118ff565b6001600160a01b03165f9081526004602052604090205490565b6004602052815f5260405f2081815481106105be575f80fd5b905f5260205f20015f91509150505481565b5f818152600360205260409020546060906001600160a01b03163314610609576040516349b7b52360e01b815260040160405180910390fd5b5f828152600360208181526040928390209091018054835181840281018401909452808452909183018282801561065d57602002820191905f5260205f20905b815481526020019060010190808311610649575b50505050509050919050565b5f818152600360205260408120546001600160a01b0316331461069f576040516349b7b52360e01b815260040160405180910390fd5b505f9081526003602052604090206002015490565b6001600160a01b0381165f9081526004602090815260409182902080548351818402810184019094528084526060939283018282801561065d57602002820191905f5260205f20908154815260200190600101908083116106495750505050509050919050565b5f818152600360205260408120546001600160a01b03163314610751576040516349b7b52360e01b815260040160405180910390fd5b505f9081526003602052604090206001015490565b5f61076f611069565b905090565b345f0361079457604051630b7cc7c360e11b815260040160405180910390fd5b5f6107a16103e834611a52565b90505f6107ad8261109d565b335f908152600260205260409020549091506107c990826110b5565b335f9081526002602052604090208190556107e3906110ea565b50335f818152600260205260409020546107fc916110f9565b50604080513481526020810184905260019181019190915233907f84fcc71cbb01eb19e9de1a24dbb9258b44765449e460f408b9f5f4252a898a5a906060015b60405180910390a25050565b69021e19e0c9bab240000081111561087357604051633ce95f8560e11b815260040160405180910390fd5b5f61087d8261109d565b335f9081526002602052604090205490915061089990826110b5565b335f9081526002602052604090208190556108b3906110ea565b50335f818152600260205260409020546108cc916110f9565b5060405182815233907f3f2c9d57c068687834f0de942a9babb9e5acab57d516d3480a3c16ee165a42739060200161083c565b8660018160ff161080610915575060038160ff16115b15610933576040516350a5098160e11b815260040160405180910390fd5b5f6109738888888080601f0160208091040260200160405190810160405280939291908181526020018383808284375f9201919091525061110b92505050565b90505f6109b58686868080601f0160208091040260200160405190810160405280939291908181526020018383808284375f9201919091525061111892505050565b600180549192505f9190826109c983611a69565b909155505f81815260036020526040902080547fffffffffffffffffffffff00000000000000000000000000000000000000000016337fffffffffffffffffffffff00ffffffffffffffffffffffffffffffffffffffff1617600160a01b60ff8f16908102919091178255600182018690556002820185905542600483015560058201805460ff191690559192509067ffffffffffffffff811115610a7057610a70611a81565b604051908082528060200260200182016040528015610a99578160200160208202803683370190505b508051610ab091600384019160209091019061180f565b50335f90815260026020526040902054610aca9084611125565b335f81815260026020818152604080842095865560048252832080546001810182559084528184200187905592909152905254610b06906110ea565b50335f81815260026020526040902054610b1f916110f9565b50610b2d81600101546110ea565b50610b3c8160010154336110f9565b50610b4a81600201546110ea565b50610b598160020154336110f9565b506040805160ff8e168152426020820152339184917f94f16e44c79109eef01445060bd1ecab32afe33b66fc11d540728626ca3b96bc910160405180910390a3505050505050505050505050565b336001600160a01b0382161480610bc757505f546001600160a01b031633145b610c175760405162461bcd60e51b815260206004820152600c60248201527f556e617574686f72697a65640000000000000000000000000000000000000000604482015260640160405180910390fd5b6001600160a01b0381165f90815260026020526040902054610c3890611153565b5050565b5f81815260036020526040902080546001600160a01b03163314610c73576040516349b7b52360e01b815260040160405180910390fd5b600581015460ff1615610c99576040516341d5c2cf60e01b815260040160405180910390fd5b5f610ca35f61109d565b90505f5b825460ff600160a01b90910481169082161015610dbc57604080514260208083019190915244828401526060820187905260f884901b6001600160f81b031916608083015282516061818403018152608190920190925280519101205f90610d1190600690611a95565b610d1c906001611ab4565b9050610d278161109d565b846003018360ff1681548110610d3f57610d3f611ad0565b5f91825260209091200155610d5c83610d578361109d565b6110b5565b9250610d87846003018360ff1681548110610d7957610d79611ad0565b905f5260205f2001546110ea565b50610db2846003018360ff1681548110610da357610da3611ad0565b905f5260205f200154336110f9565b5050600101610ca7565b505f610dd182610dcc600161109d565b61115d565b90505f610de682610de15f61109d565b61118b565b90505f610dff8560010154610dfa5f6111b9565b6111c8565b90505f610e0c83836111e8565b90505f610e21876002015488600201546110b5565b90505f610e378383610e325f61109d565b611208565b335f90815260026020526040902054909150610e5390826110b5565b335f908152600260205260409020819055610e6d906110ea565b50335f81815260026020526040902054610e86916110f9565b50610e90836110ea565b50610e9b83336110f9565b5060058801805460ff1916600117905560405133908a907f36e33eea5df2e6c873949c5c856feb597f250ea8a329ed5ac38c39ab9690535990610ee19042815260200190565b60405180910390a3505050505050505050565b5f546001600160a01b03163314610f1e57604051635fc483c560e01b815260040160405180910390fd5b5f80546040516001600160a01b03909116914780156108fc02929091818181858888f19350505050158015610f55573d5f5f3e3d5ffd5b50565b5f610f988484848080601f0160208091040260200160405190810160405280939291908181526020018383808284375f9201919091525061111892505050565b335f90815260026020526040902054909150610fb49082611125565b335f908152600260205260409020819055610fce906110ea565b50335f81815260026020526040902054610fe7916110f9565b50604051670de0b6b3a76400009033905f90839082818181858883f19350505050158015611017573d5f5f3e3d5ffd5b5060408051828152683635c9adc5dea0000060208201525f81830152905133917f84fcc71cbb01eb19e9de1a24dbb9258b44765449e460f408b9f5f4252a898a5a919081900360600190a25050505050565b5f466001036110785750600190565b4662aa36a703611089575061271190565b46617a690361109857505f1990565b505f90565b5f6110af8263ffffffff16600461124f565b92915050565b5f826110c7576110c45f61109d565b92505b816110d8576110d55f61109d565b91505b6110e383835f6112f1565b9392505050565b5f6110f582306113c1565b5090565b5f61110483836113c1565b5090919050565b5f6110e383836002611435565b5f6110e383836004611435565b5f82611137576111345f61109d565b92505b81611148576111455f61109d565b91505b6110e383835f611542565b5f6110f5826115cc565b5f8261116f5761116c5f61109d565b92505b816111805761117d5f61109d565b91505b6110e383835f61164a565b5f8261119d5761119a5f61109d565b92505b816111ae576111ab5f61109d565b91505b6110e383835f6116d4565b5f6110af8260ff16600261124f565b5f826111da576111d75f6111b9565b92505b816111ae576111ab5f6111b9565b5f826111fa576111f75f61175e565b92505b816111ae576111ab5f61175e565b5f8361121a576112175f61175e565b93505b8261122b576112285f61109d565b92505b8161123c576112395f61109d565b91505b611247848484611779565b949350505050565b7f9e7b61f58c47dc699ac88507c4f5bb9f121c03808c5676a8078fe583e464970154604051639cd07acb60e01b81525f915f516020611b815f395f51905f52916001600160a01b0390911690639cd07acb906112b19087908790600401611b04565b6020604051808303815f875af11580156112cd573d5f5f3e3d5ffd5b505050506040513d601f19601f820116820180604052508101906112479190611b18565b5f5f82156113045750600160f81b611307565b505f5b7f9e7b61f58c47dc699ac88507c4f5bb9f121c03808c5676a8078fe583e46497015460405163022f65e760e31b815260048101879052602481018690526001600160f81b0319831660448201525f516020611b815f395f51905f52916001600160a01b03169063117b2f38906064015b6020604051808303815f875af1158015611393573d5f5f3e3d5ffd5b505050506040513d601f19601f820116820180604052508101906113b79190611b18565b9695505050505050565b5f516020611b815f395f51905f528054604051635ca4b5b160e11b8152600481018590526001600160a01b0384811660248301529091169063b9496b62906044015b5f604051808303815f87803b15801561141a575f5ffd5b505af115801561142c573d5f5f3e3d5ffd5b50505050505050565b7f9e7b61f58c47dc699ac88507c4f5bb9f121c03808c5676a8078fe583e46497015460405163045fc19560e11b81525f915f516020611b815f395f51905f52916001600160a01b03909116906308bf832a9061149b908890339089908990600401611b2f565b6020604051808303815f875af11580156114b7573d5f5f3e3d5ffd5b505050506040513d601f19601f820116820180604052508101906114db9190611b18565b8154604051630f8e573b60e21b8152600481018390523360248201529193506001600160a01b031690633e395cec906044015f604051808303815f87803b158015611524575f5ffd5b505af1158015611536573d5f5f3e3d5ffd5b50505050509392505050565b5f5f82156115555750600160f81b611558565b505f5b7f9e7b61f58c47dc699ac88507c4f5bb9f121c03808c5676a8078fe583e4649701546040516303056db360e31b815260048101879052602481018690526001600160f81b0319831660448201525f516020611b815f395f51905f52916001600160a01b03169063182b6d9890606401611377565b6040805160018082528183019092525f516020611b815f395f51905f52915f91906020808301908036833701905050905082815f8151811061161057611610611ad0565b60209081029190910101528154604051637d6e912360e11b81526001600160a01b039091169063fadd2246906114039084906004016118bd565b5f5f821561165d5750600160f81b611660565b505f5b7f9e7b61f58c47dc699ac88507c4f5bb9f121c03808c5676a8078fe583e46497015460405163d99882d560e01b815260048101879052602481018690526001600160f81b0319831660448201525f516020611b815f395f51905f52916001600160a01b03169063d99882d590606401611377565b5f5f82156116e75750600160f81b6116ea565b505f5b7f9e7b61f58c47dc699ac88507c4f5bb9f121c03808c5676a8078fe583e46497015460405163f77f3f1d60e01b815260048101879052602481018690526001600160f81b0319831660448201525f516020611b815f395f51905f52916001600160a01b03169063f77f3f1d90606401611377565b5f6110af8261176d575f611770565b60015b60ff165f61124f565b5f805f516020611b815f395f51905f526001810154604051637702dcff60e01b81526004810188905260248101879052604481018690529192506001600160a01b031690637702dcff906064016020604051808303815f875af11580156117e2573d5f5f3e3d5ffd5b505050506040513d601f19601f820116820180604052508101906118069190611b18565b95945050505050565b828054828255905f5260205f20908101928215611848579160200282015b8281111561184857825182559160200191906001019061182d565b506110f59291505b808211156110f5575f8155600101611850565b80356001600160a01b0381168114611879575f5ffd5b919050565b5f5f6040838503121561188f575f5ffd5b61189883611863565b946020939093013593505050565b5f602082840312156118b6575f5ffd5b5035919050565b602080825282518282018190525f918401906040840190835b818110156118f45783518352602093840193909201916001016118d6565b509095945050505050565b5f6020828403121561190f575f5ffd5b6110e382611863565b5f5f83601f840112611928575f5ffd5b50813567ffffffffffffffff81111561193f575f5ffd5b602083019150836020828501011115611956575f5ffd5b9250929050565b5f5f5f5f5f5f5f60a0888a031215611973575f5ffd5b873560ff81168114611983575f5ffd5b965060208801359550604088013567ffffffffffffffff8111156119a5575f5ffd5b6119b18a828b01611918565b90965094505060608801359250608088013567ffffffffffffffff8111156119d7575f5ffd5b6119e38a828b01611918565b989b979a50959850939692959293505050565b5f5f5f60408486031215611a08575f5ffd5b83359250602084013567ffffffffffffffff811115611a25575f5ffd5b611a3186828701611918565b9497909650939450505050565b634e487b7160e01b5f52601160045260245ffd5b80820281158282048414176110af576110af611a3e565b5f60018201611a7a57611a7a611a3e565b5060010190565b634e487b7160e01b5f52604160045260245ffd5b5f82611aaf57634e487b7160e01b5f52601260045260245ffd5b500690565b63ffffffff81811683821601908111156110af576110af611a3e565b634e487b7160e01b5f52603260045260245ffd5b60548110611b0057634e487b7160e01b5f52602160045260245ffd5b9052565b828152604081016110e36020830184611ae4565b5f60208284031215611b28575f5ffd5b5051919050565b8481526001600160a01b0384166020820152608060408201525f8351806080840152806020860160a085015e5f60a0828501015260a0601f19601f8301168401019150506118066060830184611ae456fe9e7b61f58c47dc699ac88507c4f5bb9f121c03808c5676a8078fe583e4649700a164736f6c634300081b000a",
  "linkReferences": {},
  "deployedLinkReferences": {}
}